{
  "contractName": "MultiSigWallet",
  "abi": [
    {
      "inputs": [
        {
          "internalType": "address[]",
          "name": "_approvers",
          "type": "address[]"
        },
        {
          "internalType": "uint256",
          "name": "_quorum",
          "type": "uint256"
        }
      ],
      "stateMutability": "nonpayable",
      "type": "constructor"
    },
    {
      "inputs": [
        {
          "internalType": "address",
          "name": "",
          "type": "address"
        },
        {
          "internalType": "uint256",
          "name": "",
          "type": "uint256"
        }
      ],
      "name": "approvals",
      "outputs": [
        {
          "internalType": "bool",
          "name": "",
          "type": "bool"
        }
      ],
      "stateMutability": "view",
      "type": "function",
      "constant": true
    },
    {
      "inputs": [
        {
          "internalType": "uint256",
          "name": "",
          "type": "uint256"
        }
      ],
      "name": "approvers",
      "outputs": [
        {
          "internalType": "address",
          "name": "",
          "type": "address"
        }
      ],
      "stateMutability": "view",
      "type": "function",
      "constant": true
    },
    {
      "inputs": [],
      "name": "quorum",
      "outputs": [
        {
          "internalType": "uint256",
          "name": "",
          "type": "uint256"
        }
      ],
      "stateMutability": "view",
      "type": "function",
      "constant": true
    },
    {
      "inputs": [
        {
          "internalType": "uint256",
          "name": "",
          "type": "uint256"
        }
      ],
      "name": "transactions",
      "outputs": [
        {
          "internalType": "uint256",
          "name": "id",
          "type": "uint256"
        },
        {
          "internalType": "address payable",
          "name": "to",
          "type": "address"
        },
        {
          "internalType": "uint256",
          "name": "amount",
          "type": "uint256"
        },
        {
          "internalType": "uint256",
          "name": "approvals",
          "type": "uint256"
        },
        {
          "internalType": "bool",
          "name": "sent",
          "type": "bool"
        }
      ],
      "stateMutability": "view",
      "type": "function",
      "constant": true
    },
    {
      "stateMutability": "payable",
      "type": "receive",
      "payable": true
    },
    {
      "inputs": [],
      "name": "getApproversList",
      "outputs": [
        {
          "internalType": "address[]",
          "name": "",
          "type": "address[]"
        }
      ],
      "stateMutability": "view",
      "type": "function",
      "constant": true
    },
    {
      "inputs": [],
      "name": "getTransactions",
      "outputs": [
        {
          "components": [
            {
              "internalType": "uint256",
              "name": "id",
              "type": "uint256"
            },
            {
              "internalType": "address payable",
              "name": "to",
              "type": "address"
            },
            {
              "internalType": "uint256",
              "name": "amount",
              "type": "uint256"
            },
            {
              "internalType": "uint256",
              "name": "approvals",
              "type": "uint256"
            },
            {
              "internalType": "bool",
              "name": "sent",
              "type": "bool"
            }
          ],
          "internalType": "struct MultiSigWallet.Transaction[]",
          "name": "",
          "type": "tuple[]"
        }
      ],
      "stateMutability": "view",
      "type": "function",
      "constant": true
    },
    {
      "inputs": [
        {
          "internalType": "address payable",
          "name": "_to",
          "type": "address"
        },
        {
          "internalType": "uint256",
          "name": "_amount",
          "type": "uint256"
        }
      ],
      "name": "createTransaction",
      "outputs": [],
      "stateMutability": "nonpayable",
      "type": "function"
    },
    {
      "inputs": [
        {
          "internalType": "uint256",
          "name": "_id",
          "type": "uint256"
        }
      ],
      "name": "approveTransaction",
      "outputs": [],
      "stateMutability": "nonpayable",
      "type": "function"
    }
  ],
  "bytecode": "0x60806040523480156200001157600080fd5b5060405162001366380380620013668339818101604052620000379190810190620001ef565b81600090805190602001906200004f9291906200005f565b5080600181905550505062000312565b828054828255906000526020600020908101928215620000db579160200282015b82811115620000da5782518260006101000a81548173ffffffffffffffffffffffffffffffffffffffff021916908373ffffffffffffffffffffffffffffffffffffffff1602179055509160200191906001019062000080565b5b509050620000ea9190620000ee565b5090565b6200013191905b808211156200012d57600081816101000a81549073ffffffffffffffffffffffffffffffffffffffff021916905550600101620000f5565b5090565b90565b6000815190506200014581620002de565b92915050565b600082601f8301126200015d57600080fd5b8151620001746200016e8262000277565b62000249565b915081818352602084019350602081019050838560208402820111156200019a57600080fd5b60005b83811015620001ce5781620001b3888262000134565b8452602084019350602083019250506001810190506200019d565b5050505092915050565b600081519050620001e981620002f8565b92915050565b600080604083850312156200020357600080fd5b600083015167ffffffffffffffff8111156200021e57600080fd5b6200022c858286016200014b565b92505060206200023f85828601620001d8565b9150509250929050565b6000604051905081810181811067ffffffffffffffff821117156200026d57600080fd5b8060405250919050565b600067ffffffffffffffff8211156200028f57600080fd5b602082029050602081019050919050565b6000620002ad82620002b4565b9050919050565b600073ffffffffffffffffffffffffffffffffffffffff82169050919050565b6000819050919050565b620002e981620002a0565b8114620002f557600080fd5b50565b6200030381620002d4565b81146200030f57600080fd5b50565b61104480620003226000396000f3fe60806040526004361061007f5760003560e01c806383920e901161004e57806383920e90146101335780639ace38c21461015e578063d3650fb81461019f578063ffabc673146101dc57610086565b80631703a0181461008b5780631e7f8f0f146100b6578063242232d1146100df578063265905c21461010857610086565b3661008657005b600080fd5b34801561009757600080fd5b506100a0610219565b6040516100ad9190610e7e565b60405180910390f35b3480156100c257600080fd5b506100dd60048036036100d89190810190610a2b565b61021f565b005b3480156100eb57600080fd5b5061010660048036036101019190810190610aa3565b6103f9565b005b34801561011457600080fd5b5061011d610795565b60405161012a9190610dbf565b60405180910390f35b34801561013f57600080fd5b50610148610823565b6040516101559190610de1565b60405180910390f35b34801561016a57600080fd5b5061018560048036036101809190810190610aa3565b610911565b604051610196959493929190610e99565b60405180910390f35b3480156101ab57600080fd5b506101c660048036036101c19190810190610aa3565b610981565b6040516101d39190610da4565b60405180910390f35b3480156101e857600080fd5b5061020360048036036101fe9190810190610a67565b6109bd565b6040516102109190610e03565b60405180910390f35b60015481565b600080905060008090505b6000805490508110156102b4573373ffffffffffffffffffffffffffffffffffffffff166000828154811061025b57fe5b9060005260206000200160009054906101000a900473ffffffffffffffffffffffffffffffffffffffff1673ffffffffffffffffffffffffffffffffffffffff1614156102a757600191505b808060010191505061022a565b5060011515811515146102fc576040517f08c379a00000000000000000000000000000000000000000000000000000000081526004016102f390610e1e565b60405180910390fd5b60026040518060a0016040528060028054905081526020018573ffffffffffffffffffffffffffffffffffffffff168152602001848152602001600081526020016000151581525090806001815401808255809150506001900390600052602060002090600502016000909190919091506000820151816000015560208201518160010160006101000a81548173ffffffffffffffffffffffffffffffffffffffff021916908373ffffffffffffffffffffffffffffffffffffffff160217905550604082015181600201556060820151816003015560808201518160040160006101000a81548160ff0219169083151502179055505050505050565b600080905060008090505b60008054905081101561048e573373ffffffffffffffffffffffffffffffffffffffff166000828154811061043557fe5b9060005260206000200160009054906101000a900473ffffffffffffffffffffffffffffffffffffffff1673ffffffffffffffffffffffffffffffffffffffff16141561048157600191505b8080600101915050610404565b5060011515811515146104d6576040517f08c379a00000000000000000000000000000000000000000000000000000000081526004016104cd90610e1e565b60405180910390fd5b60001515600283815481106104e757fe5b906000526020600020906005020160040160009054906101000a900460ff16151514610548576040517f08c379a000000000000000000000000000000000000000000000000000000000815260040161053f90610e5e565b60405180910390fd5b60001515600360003373ffffffffffffffffffffffffffffffffffffffff1673ffffffffffffffffffffffffffffffffffffffff168152602001908152602001600020600084815260200190815260200160002060009054906101000a900460ff161515146105ec576040517f08c379a00000000000000000000000000000000000000000000000000000000081526004016105e390610e3e565b60405180910390fd5b6001600360003373ffffffffffffffffffffffffffffffffffffffff1673ffffffffffffffffffffffffffffffffffffffff168152602001908152602001600020600084815260200190815260200160002060006101000a81548160ff0219169083151502179055506002828154811061066257fe5b9060005260206000209060050201600301600081548092919060010191905055506001546002838154811061069357fe5b90600052602060002090600502016003015410610791576001600283815481106106b957fe5b906000526020600020906005020160040160006101000a81548160ff0219169083151502179055506000600283815481106106f057fe5b906000526020600020906005020160010160009054906101000a900473ffffffffffffffffffffffffffffffffffffffff16905060006002848154811061073357fe5b90600052602060002090600502016002015490508173ffffffffffffffffffffffffffffffffffffffff166108fc829081150290604051600060405180830381858888f1935050505015801561078d573d6000803e3d6000fd5b5050505b5050565b6060600080548060200260200160405190810160405280929190818152602001828054801561081957602002820191906000526020600020905b8160009054906101000a900473ffffffffffffffffffffffffffffffffffffffff1673ffffffffffffffffffffffffffffffffffffffff16815260200190600101908083116107cf575b5050505050905090565b60606002805480602002602001604051908101604052809291908181526020016000905b8282101561090857838290600052602060002090600502016040518060a0016040529081600082015481526020016001820160009054906101000a900473ffffffffffffffffffffffffffffffffffffffff1673ffffffffffffffffffffffffffffffffffffffff1673ffffffffffffffffffffffffffffffffffffffff16815260200160028201548152602001600382015481526020016004820160009054906101000a900460ff16151515158152505081526020019060010190610847565b50505050905090565b6002818154811061091e57fe5b90600052602060002090600502016000915090508060000154908060010160009054906101000a900473ffffffffffffffffffffffffffffffffffffffff16908060020154908060030154908060040160009054906101000a900460ff16905085565b6000818154811061098e57fe5b906000526020600020016000915054906101000a900473ffffffffffffffffffffffffffffffffffffffff1681565b60036020528160005260406000206020528060005260406000206000915091509054906101000a900460ff1681565b6000813590506109fb81610fc9565b92915050565b600081359050610a1081610fe0565b92915050565b600081359050610a2581610ff7565b92915050565b60008060408385031215610a3e57600080fd5b6000610a4c85828601610a01565b9250506020610a5d85828601610a16565b9150509250929050565b60008060408385031215610a7a57600080fd5b6000610a88858286016109ec565b9250506020610a9985828601610a16565b9150509250929050565b600060208284031215610ab557600080fd5b6000610ac384828501610a16565b91505092915050565b6000610ad88383610b1a565b60208301905092915050565b6000610af08383610d1e565b60a08301905092915050565b610b0581610f81565b82525050565b610b1481610f81565b82525050565b610b2381610f6f565b82525050565b610b3281610f6f565b82525050565b6000610b4382610f0c565b610b4d8185610f3c565b9350610b5883610eec565b8060005b83811015610b89578151610b708882610acc565b9750610b7b83610f22565b925050600181019050610b5c565b5085935050505092915050565b6000610ba182610f17565b610bab8185610f4d565b9350610bb683610efc565b8060005b83811015610be7578151610bce8882610ae4565b9750610bd983610f2f565b925050600181019050610bba565b5085935050505092915050565b610bfd81610f93565b82525050565b610c0c81610f93565b82525050565b6000610c1f601983610f5e565b91507f53656e646572206973206e6f7420616e20617070726f766572000000000000006000830152602082019050919050565b6000610c5f602483610f5e565b91507f5472616e73616374696f6e2063616e6e6f7420626520617070726f766564207460008301527f77696365000000000000000000000000000000000000000000000000000000006020830152604082019050919050565b6000610cc5602a83610f5e565b91507f54686973207472616e73616374696f6e2068617320616c72656164792062656560008301527f6e206578656375746564000000000000000000000000000000000000000000006020830152604082019050919050565b60a082016000820151610d346000850182610d86565b506020820151610d476020850182610afc565b506040820151610d5a6040850182610d86565b506060820151610d6d6060850182610d86565b506080820151610d806080850182610bf4565b50505050565b610d8f81610fbf565b82525050565b610d9e81610fbf565b82525050565b6000602082019050610db96000830184610b29565b92915050565b60006020820190508181036000830152610dd98184610b38565b905092915050565b60006020820190508181036000830152610dfb8184610b96565b905092915050565b6000602082019050610e186000830184610c03565b92915050565b60006020820190508181036000830152610e3781610c12565b9050919050565b60006020820190508181036000830152610e5781610c52565b9050919050565b60006020820190508181036000830152610e7781610cb8565b9050919050565b6000602082019050610e936000830184610d95565b92915050565b600060a082019050610eae6000830188610d95565b610ebb6020830187610b0b565b610ec86040830186610d95565b610ed56060830185610d95565b610ee26080830184610c03565b9695505050505050565b6000819050602082019050919050565b6000819050602082019050919050565b600081519050919050565b600081519050919050565b6000602082019050919050565b6000602082019050919050565b600082825260208201905092915050565b600082825260208201905092915050565b600082825260208201905092915050565b6000610f7a82610f9f565b9050919050565b6000610f8c82610f9f565b9050919050565b60008115159050919050565b600073ffffffffffffffffffffffffffffffffffffffff82169050919050565b6000819050919050565b610fd281610f6f565b8114610fdd57600080fd5b50565b610fe981610f81565b8114610ff457600080fd5b50565b61100081610fbf565b811461100b57600080fd5b5056fea2646970667358221220c7491fbf23a2b018bfe86d3bcbb347a5584ae87d07083675721a242cd578099664736f6c63430006000033",
  "source": "pragma solidity ^0.6.0;\r\npragma experimental ABIEncoderV2;\r\n\r\ncontract MultiSigWallet {\r\n    // state variables\r\n    address[] public approvers;\r\n    uint256 public quorum;\r\n    // a data structure to define the transactions\r\n    struct Transaction {\r\n        uint256 id;\r\n        address payable to;\r\n        uint256 amount;\r\n        uint256 approvals;\r\n        bool sent;\r\n    }\r\n    // a mapping to keep track of the already sent transactions\r\n    // mapping(uint => Transaction) public transactions;\r\n    // a variable to keep track the transaction count and serve as a new transaction id\r\n    // uint public transactionId;\r\n\r\n    // keeping track of the transactions and their states\r\n    Transaction[] public transactions;\r\n    // keeping track of which approver has approved which transaction\r\n    mapping(address => mapping(uint256 => bool)) public approvals;\r\n\r\n    // constructor\r\n    constructor(address[] memory _approvers, uint256 _quorum) public {\r\n        approvers = _approvers;\r\n        quorum = _quorum;\r\n    }\r\n\r\n    // modifiers so that some functions can be called using approvers only\r\n    modifier onlyApprover {\r\n        bool isApprover = false;\r\n\r\n        for (uint256 i = 0; i < approvers.length; i++) {\r\n            if (approvers[i] == msg.sender) {\r\n                isApprover = true;\r\n            }\r\n        }\r\n\r\n        require(isApprover == true, \"Sender is not an approver\");\r\n        _;\r\n    }\r\n\r\n    // function to get list of approvers\r\n    function getApproversList() external view returns (address[] memory) {\r\n        return approvers;\r\n    }\r\n\r\n    // a function to return list of transactions\r\n    function getTransactions() external view returns (Transaction[] memory) {\r\n        return transactions;\r\n    }\r\n\r\n    // a function that can propose a transaction , then approvers approve it and it is executed\r\n    function createTransaction(address payable _to, uint256 _amount)\r\n        external\r\n        onlyApprover\r\n    {\r\n        // create a new pending transaction\r\n        transactions.push(\r\n            Transaction({\r\n                id: transactions.length,\r\n                amount: _amount,\r\n                to: _to,\r\n                approvals: 0,\r\n                sent: false\r\n            })\r\n        );\r\n    }\r\n\r\n    // a function to approve transactions\r\n    function approveTransaction(uint256 _id) external onlyApprover {\r\n        // check if this transaction is already sent\r\n        require(\r\n            transactions[_id].sent == false,\r\n            \"This transaction has already been executed\"\r\n        );\r\n        // check that an approver doesnot approve the transaction twice\r\n        require(\r\n            approvals[msg.sender][_id] == false,\r\n            \"Transaction cannot be approved twice\"\r\n        );\r\n\r\n        // increment the approval flag for given approver for given approval address\r\n        approvals[msg.sender][_id] = true;\r\n        // increment the approval count for that Transaction\r\n        transactions[_id].approvals++;\r\n\r\n        // if approval count > quorum , execute the transaction\r\n        if (transactions[_id].approvals >= quorum) {\r\n            transactions[_id].sent = true;\r\n            // execute the actual transactions\r\n\r\n            address payable to = transactions[_id].to;\r\n            uint256 amount = transactions[_id].amount;\r\n\r\n            to.transfer(amount);\r\n        }\r\n    }\r\n\r\n    // a fallback function to receive ether\r\n    receive() external payable {}\r\n}\r\n",
  "sourcePath": "C:/Users/Abhishek/Desktop/web dev/JS_INTERVIEW/REACTJS/PROJECT1/EAT_THE_BLOCKS/multisig_wallet/contracts/MultiSigWallet.sol",
  "compiler": {
    "name": "solc",
    "version": "0.6.0+commit.26b70077.Emscripten.clang"
  },
  "schemaVersion": "3.3.1",
  "updatedAt": "2020-11-17T15:36:22.675Z",
  "networkType": "ethereum",
  "devdoc": {
    "methods": {}
  },
  "userdoc": {
    "methods": {}
  }
}